{"abi":[{"type":"function","name":"createMandate","inputs":[{"name":"_agent","type":"address","internalType":"address"},{"name":"_maxTradeSize","type":"uint256","internalType":"uint256"},{"name":"_allowedMarkets","type":"address[]","internalType":"address[]"},{"name":"_expiryTime","type":"uint256","internalType":"uint256"}],"outputs":[{"name":"mandateId","type":"uint256","internalType":"uint256"}],"stateMutability":"nonpayable"},{"type":"function","name":"enforcePolicy","inputs":[{"name":"_agent","type":"address","internalType":"address"},{"name":"_market","type":"address","internalType":"address"},{"name":"_tradeSize","type":"uint256","internalType":"uint256"}],"outputs":[],"stateMutability":"nonpayable"},{"type":"function","name":"getMandate","inputs":[{"name":"_smartAccount","type":"address","internalType":"address"},{"name":"_agent","type":"address","internalType":"address"}],"outputs":[{"name":"mandate","type":"tuple","internalType":"struct DelegationPolicy.Mandate","components":[{"name":"agent","type":"address","internalType":"address"},{"name":"maxTradeSize","type":"uint256","internalType":"uint256"},{"name":"allowedMarkets","type":"address[]","internalType":"address[]"},{"name":"expiryTime","type":"uint256","internalType":"uint256"},{"name":"isActive","type":"bool","internalType":"bool"},{"name":"createdAt","type":"uint256","internalType":"uint256"},{"name":"mandateId","type":"uint256","internalType":"uint256"}]}],"stateMutability":"view"},{"type":"function","name":"isAgentAuthorized","inputs":[{"name":"_smartAccount","type":"address","internalType":"address"},{"name":"_agent","type":"address","internalType":"address"}],"outputs":[{"name":"authorized","type":"bool","internalType":"bool"}],"stateMutability":"view"},{"type":"function","name":"mandateIndex","inputs":[{"name":"","type":"address","internalType":"address"},{"name":"","type":"address","internalType":"address"}],"outputs":[{"name":"","type":"uint256","internalType":"uint256"}],"stateMutability":"view"},{"type":"function","name":"mandates","inputs":[{"name":"","type":"address","internalType":"address"},{"name":"","type":"uint256","internalType":"uint256"}],"outputs":[{"name":"agent","type":"address","internalType":"address"},{"name":"maxTradeSize","type":"uint256","internalType":"uint256"},{"name":"expiryTime","type":"uint256","internalType":"uint256"},{"name":"isActive","type":"bool","internalType":"bool"},{"name":"createdAt","type":"uint256","internalType":"uint256"},{"name":"mandateId","type":"uint256","internalType":"uint256"}],"stateMutability":"view"},{"type":"function","name":"revokeAgent","inputs":[{"name":"_agent","type":"address","internalType":"address"}],"outputs":[],"stateMutability":"nonpayable"},{"type":"event","name":"MandateCreated","inputs":[{"name":"smartAccount","type":"address","indexed":true,"internalType":"address"},{"name":"agent","type":"address","indexed":true,"internalType":"address"},{"name":"maxTradeSize","type":"uint256","indexed":false,"internalType":"uint256"},{"name":"expiryTime","type":"uint256","indexed":false,"internalType":"uint256"},{"name":"allowedMarkets","type":"address[]","indexed":false,"internalType":"address[]"}],"anonymous":false},{"type":"event","name":"MandateExecution","inputs":[{"name":"smartAccount","type":"address","indexed":true,"internalType":"address"},{"name":"agent","type":"address","indexed":true,"internalType":"address"},{"name":"market","type":"address","indexed":false,"internalType":"address"},{"name":"tradeSize","type":"uint256","indexed":false,"internalType":"uint256"}],"anonymous":false},{"type":"event","name":"MandateRevoked","inputs":[{"name":"smartAccount","type":"address","indexed":true,"internalType":"address"},{"name":"agent","type":"address","indexed":true,"internalType":"address"}],"anonymous":false},{"type":"error","name":"InvalidMandate","inputs":[]},{"type":"error","name":"MandateExpired","inputs":[]},{"type":"error","name":"MandateInactive","inputs":[]},{"type":"error","name":"MarketNotWhitelisted","inputs":[]},{"type":"error","name":"TradeSizeExceedsLimit","inputs":[{"name":"requested","type":"uint256","internalType":"uint256"},{"name":"limit","type":"uint256","internalType":"uint256"}]},{"type":"error","name":"UnauthorizedAgent","inputs":[]}],"bytecode":{"object":"0x6080604052348015600e575f5ffd5b50611d198061001c5f395ff3fe608060405234801561000f575f5ffd5b506004361061007b575f3560e01c8063c541617211610059578063c541617214610100578063c5e983451461011c578063ce7fc5561461014c578063d84937fc1461017c5761007b565b80635c872c2f1461007f578063773f13cd146100af5780637da6ac0d146100e4575b5f5ffd5b61009960048036038101906100949190611542565b6101ac565b6040516100a691906115d5565b60405180910390f35b6100c960048036038101906100c491906115ee565b6105b4565b6040516100db96959493929190611655565b60405180910390f35b6100fe60048036038101906100f991906116b4565b610630565b005b61011a600480360381019061011591906116df565b6108e4565b005b6101366004803603810190610131919061172f565b610d6a565b60405161014391906118db565b60405180910390f35b6101666004803603810190610161919061172f565b611007565b60405161017391906115d5565b60405180910390f35b6101966004803603810190610191919061172f565b611027565b6040516101a391906118fb565b60405180910390f35b5f5f73ffffffffffffffffffffffffffffffffffffffff168673ffffffffffffffffffffffffffffffffffffffff160361021b576040517f08c379a00000000000000000000000000000000000000000000000000000000081526004016102129061196e565b60405180910390fd5b5f851161025d576040517f08c379a0000000000000000000000000000000000000000000000000000000008152600401610254906119d6565b60405180910390fd5b5f84849050116102a2576040517f08c379a000000000000000000000000000000000000000000000000000000000815260040161029990611a3e565b60405180910390fd5b4282116102e4576040517f08c379a00000000000000000000000000000000000000000000000000000000081526004016102db90611aa6565b60405180910390fd5b5f5f3373ffffffffffffffffffffffffffffffffffffffff1673ffffffffffffffffffffffffffffffffffffffff1681526020019081526020015f208054905090505f6040518060e001604052808873ffffffffffffffffffffffffffffffffffffffff1681526020018781526020018686808060200260200160405190810160405280939291908181526020018383602002808284375f81840152601f19601f8201169050808301925050505050505081526020018481526020016001151581526020014281526020018381525090505f5f3373ffffffffffffffffffffffffffffffffffffffff1673ffffffffffffffffffffffffffffffffffffffff1681526020019081526020015f2081908060018154018082558091505060019003905f5260205f2090600702015f909190919091505f820151815f015f6101000a81548173ffffffffffffffffffffffffffffffffffffffff021916908373ffffffffffffffffffffffffffffffffffffffff16021790555060208201518160010155604082015181600201908051906020019061048292919061135b565b50606082015181600301556080820151816004015f6101000a81548160ff02191690831515021790555060a0820151816005015560c0820151816006015550508160015f3373ffffffffffffffffffffffffffffffffffffffff1673ffffffffffffffffffffffffffffffffffffffff1681526020019081526020015f205f8973ffffffffffffffffffffffffffffffffffffffff1673ffffffffffffffffffffffffffffffffffffffff1681526020019081526020015f20819055508673ffffffffffffffffffffffffffffffffffffffff163373ffffffffffffffffffffffffffffffffffffffff167f65acdab2370d4aea6eaaafa4a292b05b352faf86b82f1bc2481affd652c6f485888689896040516105a29493929190611b5a565b60405180910390a35095945050505050565b5f602052815f5260405f2081815481106105cc575f80fd5b905f5260205f2090600702015f9150915050805f015f9054906101000a900473ffffffffffffffffffffffffffffffffffffffff1690806001015490806003015490806004015f9054906101000a900460ff16908060050154908060060154905086565b5f60015f3373ffffffffffffffffffffffffffffffffffffffff1673ffffffffffffffffffffffffffffffffffffffff1681526020019081526020015f205f8373ffffffffffffffffffffffffffffffffffffffff1673ffffffffffffffffffffffffffffffffffffffff1681526020019081526020015f205490505f5f5f3373ffffffffffffffffffffffffffffffffffffffff1673ffffffffffffffffffffffffffffffffffffffff1681526020019081526020015f20805490500361072d576040517f08c379a000000000000000000000000000000000000000000000000000000000815260040161072490611be2565b60405180910390fd5b5f5f5f3373ffffffffffffffffffffffffffffffffffffffff1673ffffffffffffffffffffffffffffffffffffffff1681526020019081526020015f20828154811061077c5761077b611c00565b5b905f5260205f20906007020190508273ffffffffffffffffffffffffffffffffffffffff16815f015f9054906101000a900473ffffffffffffffffffffffffffffffffffffffff1673ffffffffffffffffffffffffffffffffffffffff161461081a576040517f08c379a000000000000000000000000000000000000000000000000000000000815260040161081190611be2565b60405180910390fd5b806004015f9054906101000a900460ff1661086a576040517f08c379a000000000000000000000000000000000000000000000000000000000815260040161086190611c77565b60405180910390fd5b5f816004015f6101000a81548160ff0219169083151502179055508273ffffffffffffffffffffffffffffffffffffffff163373ffffffffffffffffffffffffffffffffffffffff167ffbd87e5fac6408ec79d53f831db884ec7764f0723576d625703f31ee57602a5f60405160405180910390a3505050565b5f5f5f3373ffffffffffffffffffffffffffffffffffffffff1673ffffffffffffffffffffffffffffffffffffffff1681526020019081526020015f20805490500361095c576040517f04b0ebd000000000000000000000000000000000000000000000000000000000815260040160405180910390fd5b5f60015f3373ffffffffffffffffffffffffffffffffffffffff1673ffffffffffffffffffffffffffffffffffffffff1681526020019081526020015f205f8573ffffffffffffffffffffffffffffffffffffffff1673ffffffffffffffffffffffffffffffffffffffff1681526020019081526020015f205490505f5f5f3373ffffffffffffffffffffffffffffffffffffffff1673ffffffffffffffffffffffffffffffffffffffff1681526020019081526020015f208281548110610a2757610a26611c00565b5b905f5260205f20906007020190508473ffffffffffffffffffffffffffffffffffffffff16815f015f9054906101000a900473ffffffffffffffffffffffffffffffffffffffff1673ffffffffffffffffffffffffffffffffffffffff1614610abc576040517f04b0ebd000000000000000000000000000000000000000000000000000000000815260040160405180910390fd5b806004015f9054906101000a900460ff16610b03576040517fb25d2e8800000000000000000000000000000000000000000000000000000000815260040160405180910390fd5b8060030154421115610b41576040517f27267dfd00000000000000000000000000000000000000000000000000000000815260040160405180910390fd5b8060010154831115610b90578281600101546040517f69d9ee63000000000000000000000000000000000000000000000000000000008152600401610b87929190611c95565b60405180910390fd5b610cc6816040518060e00160405290815f82015f9054906101000a900473ffffffffffffffffffffffffffffffffffffffff1673ffffffffffffffffffffffffffffffffffffffff1673ffffffffffffffffffffffffffffffffffffffff1681526020016001820154815260200160028201805480602002602001604051908101604052809291908181526020018280548015610c7f57602002820191905f5260205f20905b815f9054906101000a900473ffffffffffffffffffffffffffffffffffffffff1673ffffffffffffffffffffffffffffffffffffffff1681526020019060010190808311610c36575b5050505050815260200160038201548152602001600482015f9054906101000a900460ff1615151515815260200160058201548152602001600682015481525050856112d5565b610cfc576040517f040491b800000000000000000000000000000000000000000000000000000000815260040160405180910390fd5b8473ffffffffffffffffffffffffffffffffffffffff163373ffffffffffffffffffffffffffffffffffffffff167fde05de4589aa728e5f98b211e556103ffa90ec2757e97c94219bb724fbe966db8686604051610d5b929190611cbc565b60405180910390a35050505050565b610d726113e2565b5f5f5f8573ffffffffffffffffffffffffffffffffffffffff1673ffffffffffffffffffffffffffffffffffffffff1681526020019081526020015f20805490500315611001575f60015f8573ffffffffffffffffffffffffffffffffffffffff1673ffffffffffffffffffffffffffffffffffffffff1681526020019081526020015f205f8473ffffffffffffffffffffffffffffffffffffffff1673ffffffffffffffffffffffffffffffffffffffff1681526020019081526020015f205490505f5f5f8673ffffffffffffffffffffffffffffffffffffffff1673ffffffffffffffffffffffffffffffffffffffff1681526020019081526020015f208281548110610e8457610e83611c00565b5b905f5260205f2090600702016040518060e00160405290815f82015f9054906101000a900473ffffffffffffffffffffffffffffffffffffffff1673ffffffffffffffffffffffffffffffffffffffff1673ffffffffffffffffffffffffffffffffffffffff1681526020016001820154815260200160028201805480602002602001604051908101604052809291908181526020018280548015610f7b57602002820191905f5260205f20905b815f9054906101000a900473ffffffffffffffffffffffffffffffffffffffff1673ffffffffffffffffffffffffffffffffffffffff1681526020019060010190808311610f32575b5050505050815260200160038201548152602001600482015f9054906101000a900460ff161515151581526020016005820154815260200160068201548152505090508373ffffffffffffffffffffffffffffffffffffffff16815f015173ffffffffffffffffffffffffffffffffffffffff1603610ffe578092505050611001565b50505b92915050565b6001602052815f5260405f20602052805f5260405f205f91509150505481565b5f5f5f5f8573ffffffffffffffffffffffffffffffffffffffff1673ffffffffffffffffffffffffffffffffffffffff1681526020019081526020015f208054905003611076575f90506112cf565b5f60015f8573ffffffffffffffffffffffffffffffffffffffff1673ffffffffffffffffffffffffffffffffffffffff1681526020019081526020015f205f8473ffffffffffffffffffffffffffffffffffffffff1673ffffffffffffffffffffffffffffffffffffffff1681526020019081526020015f205490505f5f5f8673ffffffffffffffffffffffffffffffffffffffff1673ffffffffffffffffffffffffffffffffffffffff1681526020019081526020015f20828154811061114157611140611c00565b5b905f5260205f2090600702016040518060e00160405290815f82015f9054906101000a900473ffffffffffffffffffffffffffffffffffffffff1673ffffffffffffffffffffffffffffffffffffffff1673ffffffffffffffffffffffffffffffffffffffff168152602001600182015481526020016002820180548060200260200160405190810160405280929190818152602001828054801561123857602002820191905f5260205f20905b815f9054906101000a900473ffffffffffffffffffffffffffffffffffffffff1673ffffffffffffffffffffffffffffffffffffffff16815260200190600101908083116111ef575b5050505050815260200160038201548152602001600482015f9054906101000a900460ff161515151581526020016005820154815260200160068201548152505090508373ffffffffffffffffffffffffffffffffffffffff16815f015173ffffffffffffffffffffffffffffffffffffffff161480156112ba575080608001515b80156112ca575080606001514211155b925050505b92915050565b5f5f5f90505b836040015151811015611350578273ffffffffffffffffffffffffffffffffffffffff168460400151828151811061131657611315611c00565b5b602002602001015173ffffffffffffffffffffffffffffffffffffffff1603611343576001915050611355565b80806001019150506112db565b505f90505b92915050565b828054828255905f5260205f209081019282156113d1579160200282015b828111156113d0578251825f6101000a81548173ffffffffffffffffffffffffffffffffffffffff021916908373ffffffffffffffffffffffffffffffffffffffff16021790555091602001919060010190611379565b5b5090506113de9190611431565b5090565b6040518060e001604052805f73ffffffffffffffffffffffffffffffffffffffff1681526020015f8152602001606081526020015f81526020015f151581526020015f81526020015f81525090565b5b80821115611448575f815f905550600101611432565b5090565b5f5ffd5b5f5ffd5b5f73ffffffffffffffffffffffffffffffffffffffff82169050919050565b5f61147d82611454565b9050919050565b61148d81611473565b8114611497575f5ffd5b50565b5f813590506114a881611484565b92915050565b5f819050919050565b6114c0816114ae565b81146114ca575f5ffd5b50565b5f813590506114db816114b7565b92915050565b5f5ffd5b5f5ffd5b5f5ffd5b5f5f83601f840112611502576115016114e1565b5b8235905067ffffffffffffffff81111561151f5761151e6114e5565b5b60208301915083602082028301111561153b5761153a6114e9565b5b9250929050565b5f5f5f5f5f6080868803121561155b5761155a61144c565b5b5f6115688882890161149a565b9550506020611579888289016114cd565b945050604086013567ffffffffffffffff81111561159a57611599611450565b5b6115a6888289016114ed565b935093505060606115b9888289016114cd565b9150509295509295909350565b6115cf816114ae565b82525050565b5f6020820190506115e85f8301846115c6565b92915050565b5f5f604083850312156116045761160361144c565b5b5f6116118582860161149a565b9250506020611622858286016114cd565b9150509250929050565b61163581611473565b82525050565b5f8115159050919050565b61164f8161163b565b82525050565b5f60c0820190506116685f83018961162c565b61167560208301886115c6565b61168260408301876115c6565b61168f6060830186611646565b61169c60808301856115c6565b6116a960a08301846115c6565b979650505050505050565b5f602082840312156116c9576116c861144c565b5b5f6116d68482850161149a565b91505092915050565b5f5f5f606084860312156116f6576116f561144c565b5b5f6117038682870161149a565b93505060206117148682870161149a565b9250506040611725868287016114cd565b9150509250925092565b5f5f604083850312156117455761174461144c565b5b5f6117528582860161149a565b92505060206117638582860161149a565b9150509250929050565b61177681611473565b82525050565b611785816114ae565b82525050565b5f81519050919050565b5f82825260208201905092915050565b5f819050602082019050919050565b5f6117bf838361176d565b60208301905092915050565b5f602082019050919050565b5f6117e18261178b565b6117eb8185611795565b93506117f6836117a5565b805f5b8381101561182657815161180d88826117b4565b9750611818836117cb565b9250506001810190506117f9565b5085935050505092915050565b61183c8161163b565b82525050565b5f60e083015f8301516118575f86018261176d565b50602083015161186a602086018261177c565b506040830151848203604086015261188282826117d7565b9150506060830151611897606086018261177c565b5060808301516118aa6080860182611833565b5060a08301516118bd60a086018261177c565b5060c08301516118d060c086018261177c565b508091505092915050565b5f6020820190508181035f8301526118f38184611842565b905092915050565b5f60208201905061190e5f830184611646565b92915050565b5f82825260208201905092915050565b7f496e76616c6964206167656e74000000000000000000000000000000000000005f82015250565b5f611958600d83611914565b915061196382611924565b602082019050919050565b5f6020820190508181035f8301526119858161194c565b9050919050565b7f496e76616c6964206d61782074726164652073697a65000000000000000000005f82015250565b5f6119c0601683611914565b91506119cb8261198c565b602082019050919050565b5f6020820190508181035f8301526119ed816119b4565b9050919050565b7f4e6f206d61726b6574732077686974656c6973746564000000000000000000005f82015250565b5f611a28601683611914565b9150611a33826119f4565b602082019050919050565b5f6020820190508181035f830152611a5581611a1c565b9050919050565b7f496e76616c6964206578706972790000000000000000000000000000000000005f82015250565b5f611a90600e83611914565b9150611a9b82611a5c565b602082019050919050565b5f6020820190508181035f830152611abd81611a84565b9050919050565b5f82825260208201905092915050565b5f819050919050565b5f611aeb602084018461149a565b905092915050565b5f602082019050919050565b5f611b0a8385611ac4565b9350611b1582611ad4565b805f5b85811015611b4d57611b2a8284611add565b611b3488826117b4565b9750611b3f83611af3565b925050600181019050611b18565b5085925050509392505050565b5f606082019050611b6d5f8301876115c6565b611b7a60208301866115c6565b8181036040830152611b8d818486611aff565b905095945050505050565b7f4d616e64617465206e6f7420666f756e640000000000000000000000000000005f82015250565b5f611bcc601183611914565b9150611bd782611b98565b602082019050919050565b5f6020820190508181035f830152611bf981611bc0565b9050919050565b7f4e487b71000000000000000000000000000000000000000000000000000000005f52603260045260245ffd5b7f416c7265616479207265766f6b656400000000000000000000000000000000005f82015250565b5f611c61600f83611914565b9150611c6c82611c2d565b602082019050919050565b5f6020820190508181035f830152611c8e81611c55565b9050919050565b5f604082019050611ca85f8301856115c6565b611cb560208301846115c6565b9392505050565b5f604082019050611ccf5f83018561162c565b611cdc60208301846115c6565b939250505056fea2646970667358221220c4df9655ce12036ecc5b20fa56ad37e0fd341f0fd970f81805422f8fffd5342564736f6c634300081e0033","linkReferences":{}},"methodIdentifiers":{"createMandate(address,uint256,address[],uint256)":"5c872c2f","enforcePolicy(address,address,uint256)":"c5416172","getMandate(address,address)":"c5e98345","isAgentAuthorized(address,address)":"d84937fc","mandateIndex(address,address)":"ce7fc556","mandates(address,uint256)":"773f13cd","revokeAgent(address)":"7da6ac0d"},"id":21}