{"abi":[{"type":"function","name":"agentExists","inputs":[{"name":"_agentId","type":"uint256","internalType":"uint256"}],"outputs":[{"name":"exists","type":"bool","internalType":"bool"}],"stateMutability":"view"},{"type":"function","name":"agents","inputs":[{"name":"","type":"uint256","internalType":"uint256"}],"outputs":[{"name":"operator","type":"address","internalType":"address"},{"name":"strategyHash","type":"bytes32","internalType":"bytes32"},{"name":"agentType","type":"uint8","internalType":"enum AgentRegistry.AgentType"},{"name":"registeredAt","type":"uint256","internalType":"uint256"},{"name":"exists","type":"bool","internalType":"bool"}],"stateMutability":"view"},{"type":"function","name":"getAgent","inputs":[{"name":"_agentId","type":"uint256","internalType":"uint256"}],"outputs":[{"name":"agent","type":"tuple","internalType":"struct AgentRegistry.Agent","components":[{"name":"operator","type":"address","internalType":"address"},{"name":"strategyHash","type":"bytes32","internalType":"bytes32"},{"name":"agentType","type":"uint8","internalType":"enum AgentRegistry.AgentType"},{"name":"registeredAt","type":"uint256","internalType":"uint256"},{"name":"exists","type":"bool","internalType":"bool"}]}],"stateMutability":"view"},{"type":"function","name":"getOperatorAgents","inputs":[{"name":"_operator","type":"address","internalType":"address"}],"outputs":[{"name":"","type":"uint256[]","internalType":"uint256[]"}],"stateMutability":"view"},{"type":"function","name":"nextAgentId","inputs":[],"outputs":[{"name":"","type":"uint256","internalType":"uint256"}],"stateMutability":"view"},{"type":"function","name":"operatorAgents","inputs":[{"name":"","type":"address","internalType":"address"},{"name":"","type":"uint256","internalType":"uint256"}],"outputs":[{"name":"","type":"uint256","internalType":"uint256"}],"stateMutability":"view"},{"type":"function","name":"registerAgent","inputs":[{"name":"_operator","type":"address","internalType":"address"},{"name":"_strategyHash","type":"bytes32","internalType":"bytes32"},{"name":"_agentType","type":"uint8","internalType":"enum AgentRegistry.AgentType"}],"outputs":[{"name":"agentId","type":"uint256","internalType":"uint256"}],"stateMutability":"nonpayable"},{"type":"event","name":"AgentRegistered","inputs":[{"name":"agentId","type":"uint256","indexed":true,"internalType":"uint256"},{"name":"operator","type":"address","indexed":true,"internalType":"address"},{"name":"agentType","type":"uint8","indexed":false,"internalType":"enum AgentRegistry.AgentType"},{"name":"strategyHash","type":"bytes32","indexed":false,"internalType":"bytes32"},{"name":"timestamp","type":"uint256","indexed":false,"internalType":"uint256"}],"anonymous":false},{"type":"error","name":"AgentNotFound","inputs":[]},{"type":"error","name":"InvalidAgentId","inputs":[]},{"type":"error","name":"InvalidAgentType","inputs":[]}],"bytecode":{"object":"0x608060405260015f553480156012575f5ffd5b50610d95806100205f395ff3fe608060405234801561000f575f5ffd5b506004361061007b575f3560e01c8063513856c811610059578063513856c8146100fd5780637452ecf514610131578063a46a566114610161578063de99f157146101915761007b565b80632de5aaf71461007f57806330efc498146100af57806335e36387146100cd575b5f5ffd5b61009960048036038101906100949190610773565b6101c1565b6040516100a691906108f7565b60405180910390f35b6100b76102ff565b6040516100c4919061091f565b60405180910390f35b6100e760048036038101906100e29190610962565b610304565b6040516100f4919061091f565b60405180910390f35b61011760048036038101906101129190610773565b61032f565b6040516101289594939291906109dc565b60405180910390f35b61014b60048036038101906101469190610a7a565b610398565b604051610158919061091f565b60405180910390f35b61017b60048036038101906101769190610aca565b61062c565b6040516101889190610b9d565b60405180910390f35b6101ab60048036038101906101a69190610773565b6106bf565b6040516101b89190610bbd565b60405180910390f35b6101c96106e8565b60015f8381526020019081526020015f206004015f9054906101000a900460ff16610220576040517fe93ba22300000000000000000000000000000000000000000000000000000000815260040160405180910390fd5b60015f8381526020019081526020015f206040518060a00160405290815f82015f9054906101000a900473ffffffffffffffffffffffffffffffffffffffff1673ffffffffffffffffffffffffffffffffffffffff1673ffffffffffffffffffffffffffffffffffffffff16815260200160018201548152602001600282015f9054906101000a900460ff1660028111156102be576102bd6107f5565b5b60028111156102d0576102cf6107f5565b5b815260200160038201548152602001600482015f9054906101000a900460ff1615151515815250509050919050565b5f5481565b6002602052815f5260405f20818154811061031d575f80fd5b905f5260205f20015f91509150505481565b6001602052805f5260405f205f91509050805f015f9054906101000a900473ffffffffffffffffffffffffffffffffffffffff1690806001015490806002015f9054906101000a900460ff1690806003015490806004015f9054906101000a900460ff16905085565b5f5f73ffffffffffffffffffffffffffffffffffffffff168473ffffffffffffffffffffffffffffffffffffffff1603610407576040517f08c379a00000000000000000000000000000000000000000000000000000000081526004016103fe90610c30565b60405180910390fd5b5f5f1b830361044b576040517f08c379a000000000000000000000000000000000000000000000000000000000815260040161044290610c98565b60405180910390fd5b5f5490506040518060a001604052808573ffffffffffffffffffffffffffffffffffffffff16815260200184815260200183600281111561048f5761048e6107f5565b5b81526020014281526020016001151581525060015f8381526020019081526020015f205f820151815f015f6101000a81548173ffffffffffffffffffffffffffffffffffffffff021916908373ffffffffffffffffffffffffffffffffffffffff160217905550602082015181600101556040820151816002015f6101000a81548160ff0219169083600281111561052a576105296107f5565b5b0217905550606082015181600301556080820151816004015f6101000a81548160ff02191690831515021790555090505060025f8573ffffffffffffffffffffffffffffffffffffffff1673ffffffffffffffffffffffffffffffffffffffff1681526020019081526020015f2081908060018154018082558091505060019003905f5260205f20015f90919091909150555f5f8154809291906105cd90610ce3565b91905055508373ffffffffffffffffffffffffffffffffffffffff16817f4397029f7b467040cac9847a8480f27f31d9c2716a3308643a6f0208e1994aac84864260405161061d93929190610d2a565b60405180910390a39392505050565b606060025f8373ffffffffffffffffffffffffffffffffffffffff1673ffffffffffffffffffffffffffffffffffffffff1681526020019081526020015f208054806020026020016040519081016040528092919081815260200182805480156106b357602002820191905f5260205f20905b81548152602001906001019080831161069f575b50505050509050919050565b5f60015f8381526020019081526020015f206004015f9054906101000a900460ff169050919050565b6040518060a001604052805f73ffffffffffffffffffffffffffffffffffffffff1681526020015f81526020015f6002811115610728576107276107f5565b5b81526020015f81526020015f151581525090565b5f5ffd5b5f819050919050565b61075281610740565b811461075c575f5ffd5b50565b5f8135905061076d81610749565b92915050565b5f602082840312156107885761078761073c565b5b5f6107958482850161075f565b91505092915050565b5f73ffffffffffffffffffffffffffffffffffffffff82169050919050565b5f6107c78261079e565b9050919050565b6107d7816107bd565b82525050565b5f819050919050565b6107ef816107dd565b82525050565b7f4e487b71000000000000000000000000000000000000000000000000000000005f52602160045260245ffd5b60038110610833576108326107f5565b5b50565b5f81905061084382610822565b919050565b5f61085282610836565b9050919050565b61086281610848565b82525050565b61087181610740565b82525050565b5f8115159050919050565b61088b81610877565b82525050565b60a082015f8201516108a55f8501826107ce565b5060208201516108b860208501826107e6565b5060408201516108cb6040850182610859565b5060608201516108de6060850182610868565b5060808201516108f16080850182610882565b50505050565b5f60a08201905061090a5f830184610891565b92915050565b61091981610740565b82525050565b5f6020820190506109325f830184610910565b92915050565b610941816107bd565b811461094b575f5ffd5b50565b5f8135905061095c81610938565b92915050565b5f5f604083850312156109785761097761073c565b5b5f6109858582860161094e565b92505060206109968582860161075f565b9150509250929050565b6109a9816107bd565b82525050565b6109b8816107dd565b82525050565b6109c781610848565b82525050565b6109d681610877565b82525050565b5f60a0820190506109ef5f8301886109a0565b6109fc60208301876109af565b610a0960408301866109be565b610a166060830185610910565b610a2360808301846109cd565b9695505050505050565b610a36816107dd565b8114610a40575f5ffd5b50565b5f81359050610a5181610a2d565b92915050565b60038110610a63575f5ffd5b50565b5f81359050610a7481610a57565b92915050565b5f5f5f60608486031215610a9157610a9061073c565b5b5f610a9e8682870161094e565b9350506020610aaf86828701610a43565b9250506040610ac086828701610a66565b9150509250925092565b5f60208284031215610adf57610ade61073c565b5b5f610aec8482850161094e565b91505092915050565b5f81519050919050565b5f82825260208201905092915050565b5f819050602082019050919050565b5f610b298383610868565b60208301905092915050565b5f602082019050919050565b5f610b4b82610af5565b610b558185610aff565b9350610b6083610b0f565b805f5b83811015610b90578151610b778882610b1e565b9750610b8283610b35565b925050600181019050610b63565b5085935050505092915050565b5f6020820190508181035f830152610bb58184610b41565b905092915050565b5f602082019050610bd05f8301846109cd565b92915050565b5f82825260208201905092915050565b7f496e76616c6964206f70657261746f72000000000000000000000000000000005f82015250565b5f610c1a601083610bd6565b9150610c2582610be6565b602082019050919050565b5f6020820190508181035f830152610c4781610c0e565b9050919050565b7f496e76616c6964207374726174656779206861736800000000000000000000005f82015250565b5f610c82601583610bd6565b9150610c8d82610c4e565b602082019050919050565b5f6020820190508181035f830152610caf81610c76565b9050919050565b7f4e487b71000000000000000000000000000000000000000000000000000000005f52601160045260245ffd5b5f610ced82610740565b91507fffffffffffffffffffffffffffffffffffffffffffffffffffffffffffffffff8203610d1f57610d1e610cb6565b5b600182019050919050565b5f606082019050610d3d5f8301866109be565b610d4a60208301856109af565b610d576040830184610910565b94935050505056fea2646970667358221220db66ceebb9345824494ff122de0f6d41b5393c6d1d3f395dc1bec34788dc100d64736f6c634300081e0033","linkReferences":{}},"methodIdentifiers":{"agentExists(uint256)":"de99f157","agents(uint256)":"513856c8","getAgent(uint256)":"2de5aaf7","getOperatorAgents(address)":"a46a5661","nextAgentId()":"30efc498","operatorAgents(address,uint256)":"35e36387","registerAgent(address,bytes32,uint8)":"7452ecf5"},"id":19}