{"abi":[{"type":"constructor","inputs":[],"stateMutability":"nonpayable"},{"type":"function","name":"authorizedSmartAccounts","inputs":[{"name":"","type":"address","internalType":"address"}],"outputs":[{"name":"","type":"bool","internalType":"bool"}],"stateMutability":"view"},{"type":"function","name":"createMarket","inputs":[{"name":"_question","type":"string","internalType":"string"},{"name":"_resolutionTime","type":"uint256","internalType":"uint256"},{"name":"_resolver","type":"address","internalType":"address"}],"outputs":[{"name":"marketId","type":"uint256","internalType":"uint256"}],"stateMutability":"nonpayable"},{"type":"function","name":"getMarket","inputs":[{"name":"_marketId","type":"uint256","internalType":"uint256"}],"outputs":[{"name":"market","type":"tuple","internalType":"struct PredictionMarket.Market","components":[{"name":"marketId","type":"uint256","internalType":"uint256"},{"name":"question","type":"string","internalType":"string"},{"name":"createdAt","type":"uint256","internalType":"uint256"},{"name":"resolutionTime","type":"uint256","internalType":"uint256"},{"name":"status","type":"uint8","internalType":"enum PredictionMarket.MarketStatus"},{"name":"outcome","type":"uint8","internalType":"enum PredictionMarket.Outcome"},{"name":"yesLiquidity","type":"uint256","internalType":"uint256"},{"name":"noLiquidity","type":"uint256","internalType":"uint256"},{"name":"resolver","type":"address","internalType":"address"}]}],"stateMutability":"view"},{"type":"function","name":"getPosition","inputs":[{"name":"_marketId","type":"uint256","internalType":"uint256"},{"name":"_user","type":"address","internalType":"address"}],"outputs":[{"name":"position","type":"tuple","internalType":"struct PredictionMarket.Position","components":[{"name":"yesShares","type":"uint256","internalType":"uint256"},{"name":"noShares","type":"uint256","internalType":"uint256"},{"name":"pnl","type":"uint256","internalType":"uint256"},{"name":"settled","type":"bool","internalType":"bool"}]}],"stateMutability":"view"},{"type":"function","name":"getTradeHistory","inputs":[{"name":"_marketId","type":"uint256","internalType":"uint256"}],"outputs":[{"name":"trades","type":"tuple[]","internalType":"struct PredictionMarket.TradeAttribution[]","components":[{"name":"agentId","type":"uint256","internalType":"uint256"},{"name":"marketId","type":"uint256","internalType":"uint256"},{"name":"timestamp","type":"uint256","internalType":"uint256"},{"name":"direction","type":"uint8","internalType":"enum PredictionMarket.Outcome"},{"name":"shareSize","type":"uint256","internalType":"uint256"},{"name":"trader","type":"address","internalType":"address"}]}],"stateMutability":"view"},{"type":"function","name":"isMarketOpen","inputs":[{"name":"_marketId","type":"uint256","internalType":"uint256"}],"outputs":[{"name":"isOpen","type":"bool","internalType":"bool"}],"stateMutability":"view"},{"type":"function","name":"marketCreator","inputs":[],"outputs":[{"name":"","type":"address","internalType":"address"}],"stateMutability":"view"},{"type":"function","name":"markets","inputs":[{"name":"","type":"uint256","internalType":"uint256"}],"outputs":[{"name":"marketId","type":"uint256","internalType":"uint256"},{"name":"question","type":"string","internalType":"string"},{"name":"createdAt","type":"uint256","internalType":"uint256"},{"name":"resolutionTime","type":"uint256","internalType":"uint256"},{"name":"status","type":"uint8","internalType":"enum PredictionMarket.MarketStatus"},{"name":"outcome","type":"uint8","internalType":"enum PredictionMarket.Outcome"},{"name":"yesLiquidity","type":"uint256","internalType":"uint256"},{"name":"noLiquidity","type":"uint256","internalType":"uint256"},{"name":"resolver","type":"address","internalType":"address"}],"stateMutability":"view"},{"type":"function","name":"nextMarketId","inputs":[],"outputs":[{"name":"","type":"uint256","internalType":"uint256"}],"stateMutability":"view"},{"type":"function","name":"positions","inputs":[{"name":"","type":"uint256","internalType":"uint256"},{"name":"","type":"address","internalType":"address"}],"outputs":[{"name":"yesShares","type":"uint256","internalType":"uint256"},{"name":"noShares","type":"uint256","internalType":"uint256"},{"name":"pnl","type":"uint256","internalType":"uint256"},{"name":"settled","type":"bool","internalType":"bool"}],"stateMutability":"view"},{"type":"function","name":"resolveMarket","inputs":[{"name":"_marketId","type":"uint256","internalType":"uint256"},{"name":"_outcome","type":"uint8","internalType":"enum PredictionMarket.Outcome"}],"outputs":[],"stateMutability":"nonpayable"},{"type":"function","name":"setSmartAccountAuthorization","inputs":[{"name":"_smartAccount","type":"address","internalType":"address"},{"name":"_authorized","type":"bool","internalType":"bool"}],"outputs":[],"stateMutability":"nonpayable"},{"type":"function","name":"settlePosition","inputs":[{"name":"_marketId","type":"uint256","internalType":"uint256"},{"name":"_user","type":"address","internalType":"address"}],"outputs":[],"stateMutability":"nonpayable"},{"type":"function","name":"trade","inputs":[{"name":"_marketId","type":"uint256","internalType":"uint256"},{"name":"_agentId","type":"uint256","internalType":"uint256"},{"name":"_shareSize","type":"uint256","internalType":"uint256"},{"name":"_direction","type":"uint8","internalType":"enum PredictionMarket.Outcome"}],"outputs":[{"name":"newPrice","type":"uint256","internalType":"uint256"}],"stateMutability":"nonpayable"},{"type":"function","name":"tradeHistory","inputs":[{"name":"","type":"uint256","internalType":"uint256"},{"name":"","type":"uint256","internalType":"uint256"}],"outputs":[{"name":"agentId","type":"uint256","internalType":"uint256"},{"name":"marketId","type":"uint256","internalType":"uint256"},{"name":"timestamp","type":"uint256","internalType":"uint256"},{"name":"direction","type":"uint8","internalType":"enum PredictionMarket.Outcome"},{"name":"shareSize","type":"uint256","internalType":"uint256"},{"name":"trader","type":"address","internalType":"address"}],"stateMutability":"view"},{"type":"event","name":"MarketCreated","inputs":[{"name":"marketId","type":"uint256","indexed":true,"internalType":"uint256"},{"name":"question","type":"string","indexed":false,"internalType":"string"},{"name":"resolutionTime","type":"uint256","indexed":false,"internalType":"uint256"},{"name":"resolver","type":"address","indexed":true,"internalType":"address"}],"anonymous":false},{"type":"event","name":"MarketResolved","inputs":[{"name":"marketId","type":"uint256","indexed":true,"internalType":"uint256"},{"name":"outcome","type":"uint8","indexed":false,"internalType":"enum PredictionMarket.Outcome"},{"name":"timestamp","type":"uint256","indexed":false,"internalType":"uint256"}],"anonymous":false},{"type":"event","name":"MarketSettled","inputs":[{"name":"marketId","type":"uint256","indexed":true,"internalType":"uint256"},{"name":"timestamp","type":"uint256","indexed":false,"internalType":"uint256"}],"anonymous":false},{"type":"event","name":"PnLAttributed","inputs":[{"name":"marketId","type":"uint256","indexed":true,"internalType":"uint256"},{"name":"trader","type":"address","indexed":true,"internalType":"address"},{"name":"agentId","type":"uint256","indexed":true,"internalType":"uint256"},{"name":"winnings","type":"uint256","indexed":false,"internalType":"uint256"},{"name":"loss","type":"uint256","indexed":false,"internalType":"uint256"},{"name":"pnl","type":"int256","indexed":false,"internalType":"int256"}],"anonymous":false},{"type":"event","name":"TradeExecuted","inputs":[{"name":"marketId","type":"uint256","indexed":true,"internalType":"uint256"},{"name":"trader","type":"address","indexed":true,"internalType":"address"},{"name":"agentId","type":"uint256","indexed":true,"internalType":"uint256"},{"name":"direction","type":"uint8","indexed":false,"internalType":"enum PredictionMarket.Outcome"},{"name":"shareSize","type":"uint256","indexed":false,"internalType":"uint256"},{"name":"price","type":"uint256","indexed":false,"internalType":"uint256"},{"name":"timestamp","type":"uint256","indexed":false,"internalType":"uint256"}],"anonymous":false},{"type":"error","name":"InsufficientLiquidity","inputs":[]},{"type":"error","name":"InvalidDirection","inputs":[]},{"type":"error","name":"InvalidOutcome","inputs":[]},{"type":"error","name":"MarketAlreadyResolved","inputs":[]},{"type":"error","name":"MarketNotFound","inputs":[]},{"type":"error","name":"MarketNotOpen","inputs":[]},{"type":"error","name":"UnauthorizedResolver","inputs":[]},{"type":"error","name":"UnauthorizedSmartAccount","inputs":[]},{"type":"error","name":"ZeroShares","inputs":[]}],"bytecode":{"object":"0x608060405260015f553480156012575f5ffd5b503360055f6101000a81548173ffffffffffffffffffffffffffffffffffffffff021916908373ffffffffffffffffffffffffffffffffffffffff160217905550612d43806100605f395ff3fe608060405234801561000f575f5ffd5b50600436106100f3575f3560e01c8063873c5e6011610095578063d29f541d11610064578063d29f541d146102c8578063df55406e146102f8578063e684d71814610314578063eb44fdd314610347576100f3565b8063873c5e60146101fb5780639f33da3f1461022b578063b1283e771461025b578063c0973e4d14610293576100f3565b806327cbaabe116100d157806327cbaabe1461015f57806330ceb74f1461017d578063406ef2ef146101ad578063576cf9d0146101cb576100f3565b806310a7bf48146100f757806314b11bcc146101135780631d6c482f1461012f575b5f5ffd5b610111600480360381019061010c9190611a5e565b610377565b005b61012d60048036038101906101289190611ad1565b610799565b005b61014960048036038101906101449190611b32565b610880565b6040516101569190611ba5565b60405180910390f35b610167610d28565b6040516101749190611bcd565b60405180910390f35b61019760048036038101906101929190611be6565b610d4d565b6040516101a49190611c20565b60405180910390f35b6101b5610d6a565b6040516101c29190611ba5565b60405180910390f35b6101e560048036038101906101e09190611c9a565b610d6f565b6040516101f29190611ba5565b60405180910390f35b61021560048036038101906102109190611d0b565b611097565b6040516102229190611ee8565b60405180910390f35b61024560048036038101906102409190611d0b565b6111ba565b6040516102529190611c20565b60405180910390f35b61027560048036038101906102709190611d0b565b61122c565b60405161028a99989796959493929190611fcd565b60405180910390f35b6102ad60048036038101906102a8919061205f565b611334565b6040516102bf9695949392919061209d565b60405180910390f35b6102e260048036038101906102dd9190611a5e565b6113b1565b6040516102ef919061215e565b60405180910390f35b610312600480360381019061030d9190612177565b61144f565b005b61032e60048036038101906103299190611a5e565b6116df565b60405161033e94939291906121b5565b60405180910390f35b610361600480360381019061035c9190611d0b565b611722565b60405161036e9190612311565b60405180910390f35b5f60015f8481526020019081526020015f205f0154036103c3576040517f7db1be5000000000000000000000000000000000000000000000000000000000815260040160405180910390fd5b5f60015f8481526020019081526020015f209050600160028111156103eb576103ea611d6e565b5b816004015f9054906101000a900460ff16600281111561040e5761040d611d6e565b5b1461044e576040517f08c379a00000000000000000000000000000000000000000000000000000000081526004016104459061237b565b60405180910390fd5b5f60025f8581526020019081526020015f205f8473ffffffffffffffffffffffffffffffffffffffff1673ffffffffffffffffffffffffffffffffffffffff1681526020019081526020015f209050806003015f9054906101000a900460ff16156104ee576040517f08c379a00000000000000000000000000000000000000000000000000000000081526004016104e5906123e3565b60405180910390fd5b5f5f90505f5f90506001600281111561050a57610509611d6e565b5b8460040160019054906101000a900460ff16600281111561052e5761052d611d6e565b5b0361054557825f0154915082600101549050610590565b60028081111561055857610557611d6e565b5b8460040160019054906101000a900460ff16600281111561057c5761057b611d6e565b5b0361058f5782600101549150825f015490505b5b5f61271061138883856105a3919061242e565b6105ad9190612461565b6105b791906124cf565b61271080856105c69190612508565b6105d0919061257e565b6105da91906125e6565b90506001846003015f6101000a81548160ff0219169083151502179055505f8113610605575f610607565b805b84600201819055505f5f90505f60035f8a81526020019081526020015f2090505f818054905090505b5f811115610739575f826001836106479190612626565b8154811061065857610657612659565b5b905f5260205f2090600602015f01541180156106ec57508873ffffffffffffffffffffffffffffffffffffffff16826001836106949190612626565b815481106106a5576106a4612659565b5b905f5260205f2090600602016005015f9054906101000a900473ffffffffffffffffffffffffffffffffffffffff1673ffffffffffffffffffffffffffffffffffffffff16145b1561072657816001826106ff9190612626565b815481106107105761070f612659565b5b905f5260205f2090600602015f01549250610739565b808061073190612686565b915050610630565b50818873ffffffffffffffffffffffffffffffffffffffff168a7fdd940d4271614d4494eb34679e4439cec4c16501d79a6718c0df6efcc771d84b888888604051610786939291906126bc565b60405180910390a4505050505050505050565b60055f9054906101000a900473ffffffffffffffffffffffffffffffffffffffff1673ffffffffffffffffffffffffffffffffffffffff163373ffffffffffffffffffffffffffffffffffffffff1614610828576040517f08c379a000000000000000000000000000000000000000000000000000000000815260040161081f9061273b565b60405180910390fd5b8060045f8473ffffffffffffffffffffffffffffffffffffffff1673ffffffffffffffffffffffffffffffffffffffff1681526020019081526020015f205f6101000a81548160ff0219169083151502179055505050565b5f5f60015f8781526020019081526020015f205f0154036108cd576040517f7db1be5000000000000000000000000000000000000000000000000000000000815260040160405180910390fd5b5f60028111156108e0576108df611d6e565b5b60015f8781526020019081526020015f206004015f9054906101000a900460ff16600281111561091357610912611d6e565b5b1461094a576040517fc02d38cc00000000000000000000000000000000000000000000000000000000815260040160405180910390fd5b60045f3373ffffffffffffffffffffffffffffffffffffffff1673ffffffffffffffffffffffffffffffffffffffff1681526020019081526020015f205f9054906101000a900460ff166109ca576040517f5084b88c00000000000000000000000000000000000000000000000000000000815260040160405180910390fd5b5f8303610a03576040517f9811e0c700000000000000000000000000000000000000000000000000000000815260040160405180910390fd5b60016002811115610a1757610a16611d6e565b5b826002811115610a2a57610a29611d6e565b5b14158015610a5c5750600280811115610a4657610a45611d6e565b5b826002811115610a5957610a58611d6e565b5b14155b15610a93576040517f0d2c952400000000000000000000000000000000000000000000000000000000815260040160405180910390fd5b5f60025f8781526020019081526020015f205f3373ffffffffffffffffffffffffffffffffffffffff1673ffffffffffffffffffffffffffffffffffffffff1681526020019081526020015f20905060016002811115610af657610af5611d6e565b5b836002811115610b0957610b08611d6e565b5b03610b565783815f015f828254610b20919061242e565b925050819055508360015f8881526020019081526020015f206005015f828254610b4a919061242e565b92505081905550610b9b565b83816001015f828254610b69919061242e565b925050819055508360015f8881526020019081526020015f206006015f828254610b93919061242e565b925050819055505b611388915060035f8781526020019081526020015f206040518060c00160405280878152602001888152602001428152602001856002811115610be157610be0611d6e565b5b81526020018681526020013373ffffffffffffffffffffffffffffffffffffffff16815250908060018154018082558091505060019003905f5260205f2090600602015f909190919091505f820151815f015560208201518160010155604082015181600201556060820151816003015f6101000a81548160ff02191690836002811115610c7257610c71611d6e565b5b02179055506080820151816004015560a0820151816005015f6101000a81548173ffffffffffffffffffffffffffffffffffffffff021916908373ffffffffffffffffffffffffffffffffffffffff1602179055505050843373ffffffffffffffffffffffffffffffffffffffff16877f6cc3f908a26df00ebbc4468d47fdcb34b295003ba97fab396faa12934ef4011e86888742604051610d179493929190612759565b60405180910390a450949350505050565b60055f9054906101000a900473ffffffffffffffffffffffffffffffffffffffff1681565b6004602052805f5260405f205f915054906101000a900460ff1681565b5f5481565b5f5f8585905011610db5576040517f08c379a0000000000000000000000000000000000000000000000000000000008152600401610dac906127e6565b60405180910390fd5b428311610df7576040517f08c379a0000000000000000000000000000000000000000000000000000000008152600401610dee9061284e565b60405180910390fd5b5f73ffffffffffffffffffffffffffffffffffffffff168273ffffffffffffffffffffffffffffffffffffffff1603610e65576040517f08c379a0000000000000000000000000000000000000000000000000000000008152600401610e5c906128b6565b60405180910390fd5b5f54905060405180610120016040528082815260200186868080601f0160208091040260200160405190810160405280939291908181526020018383808284375f81840152601f19601f8201169050808301925050505050505081526020014281526020018481526020015f6002811115610ee357610ee2611d6e565b5b81526020015f6002811115610efb57610efa611d6e565b5b81526020015f81526020015f81526020018373ffffffffffffffffffffffffffffffffffffffff1681525060015f8381526020019081526020015f205f820151815f01556020820151816001019081610f549190612afe565b5060408201518160020155606082015181600301556080820151816004015f6101000a81548160ff02191690836002811115610f9357610f92611d6e565b5b021790555060a08201518160040160016101000a81548160ff02191690836002811115610fc357610fc2611d6e565b5b021790555060c0820151816005015560e08201518160060155610100820151816007015f6101000a81548173ffffffffffffffffffffffffffffffffffffffff021916908373ffffffffffffffffffffffffffffffffffffffff1602179055509050505f5f81548092919061103790612bcd565b91905055508173ffffffffffffffffffffffffffffffffffffffff16817f57d0d124b72f81ed1da0dc728fc33db342705974792928796f6577b8db5c3d5387878760405161108793929190612c4e565b60405180910390a3949350505050565b606060035f8381526020019081526020015f20805480602002602001604051908101604052809291908181526020015f905b828210156111af578382905f5260205f2090600602016040518060c00160405290815f82015481526020016001820154815260200160028201548152602001600382015f9054906101000a900460ff16600281111561112b5761112a611d6e565b5b600281111561113d5761113c611d6e565b5b815260200160048201548152602001600582015f9054906101000a900473ffffffffffffffffffffffffffffffffffffffff1673ffffffffffffffffffffffffffffffffffffffff1673ffffffffffffffffffffffffffffffffffffffff1681525050815260200190600101906110c9565b505050509050919050565b5f5f60015f8481526020019081526020015f205f0154036111dd575f9050611227565b5f60028111156111f0576111ef611d6e565b5b60015f8481526020019081526020015f206004015f9054906101000a900460ff16600281111561122357611222611d6e565b5b1490505b919050565b6001602052805f5260405f205f91509050805f0154908060010180546112519061292e565b80601f016020809104026020016040519081016040528092919081815260200182805461127d9061292e565b80156112c85780601f1061129f576101008083540402835291602001916112c8565b820191905f5260205f20905b8154815290600101906020018083116112ab57829003601f168201915b505050505090806002015490806003015490806004015f9054906101000a900460ff16908060040160019054906101000a900460ff1690806005015490806006015490806007015f9054906101000a900473ffffffffffffffffffffffffffffffffffffffff16905089565b6003602052815f5260405f20818154811061134d575f80fd5b905f5260205f2090600602015f9150915050805f015490806001015490806002015490806003015f9054906101000a900460ff1690806004015490806005015f9054906101000a900473ffffffffffffffffffffffffffffffffffffffff16905086565b6113b9611925565b60025f8481526020019081526020015f205f8373ffffffffffffffffffffffffffffffffffffffff1673ffffffffffffffffffffffffffffffffffffffff1681526020019081526020015f206040518060800160405290815f82015481526020016001820154815260200160028201548152602001600382015f9054906101000a900460ff161515151581525050905092915050565b5f60015f8481526020019081526020015f205f01540361149b576040517f7db1be5000000000000000000000000000000000000000000000000000000000815260040160405180910390fd5b5f60015f8481526020019081526020015f209050806007015f9054906101000a900473ffffffffffffffffffffffffffffffffffffffff1673ffffffffffffffffffffffffffffffffffffffff163373ffffffffffffffffffffffffffffffffffffffff1614611537576040517f66fba97000000000000000000000000000000000000000000000000000000000815260040160405180910390fd5b806003015442101561157e576040517f08c379a000000000000000000000000000000000000000000000000000000000815260040161157590612cc8565b60405180910390fd5b5f600281111561159157611590611d6e565b5b816004015f9054906101000a900460ff1660028111156115b4576115b3611d6e565b5b146115eb576040517faa43cb2d00000000000000000000000000000000000000000000000000000000815260040160405180910390fd5b5f60028111156115fe576115fd611d6e565b5b82600281111561161157611610611d6e565b5b03611648576040517fc74a206d00000000000000000000000000000000000000000000000000000000815260040160405180910390fd5b6001816004015f6101000a81548160ff0219169083600281111561166f5761166e611d6e565b5b0217905550818160040160016101000a81548160ff0219169083600281111561169b5761169a611d6e565b5b0217905550827f661ce16e44a34377fc37c19874f4b1bec6e84b072cf8d318838fe17c20c58e4483426040516116d2929190612ce6565b60405180910390a2505050565b6002602052815f5260405f20602052805f5260405f205f9150915050805f015490806001015490806002015490806003015f9054906101000a900460ff16905084565b61172a61194b565b5f60015f8481526020019081526020015f205f015403611776576040517f7db1be5000000000000000000000000000000000000000000000000000000000815260040160405180910390fd5b60015f8381526020019081526020015f20604051806101200160405290815f82015481526020016001820180546117ac9061292e565b80601f01602080910402602001604051908101604052809291908181526020018280546117d89061292e565b80156118235780601f106117fa57610100808354040283529160200191611823565b820191905f5260205f20905b81548152906001019060200180831161180657829003601f168201915b505050505081526020016002820154815260200160038201548152602001600482015f9054906101000a900460ff16600281111561186457611863611d6e565b5b600281111561187657611875611d6e565b5b81526020016004820160019054906101000a900460ff16600281111561189f5761189e611d6e565b5b60028111156118b1576118b0611d6e565b5b81526020016005820154815260200160068201548152602001600782015f9054906101000a900473ffffffffffffffffffffffffffffffffffffffff1673ffffffffffffffffffffffffffffffffffffffff1673ffffffffffffffffffffffffffffffffffffffff16815250509050919050565b60405180608001604052805f81526020015f81526020015f81526020015f151581525090565b6040518061012001604052805f8152602001606081526020015f81526020015f81526020015f600281111561198357611982611d6e565b5b81526020015f600281111561199b5761199a611d6e565b5b81526020015f81526020015f81526020015f73ffffffffffffffffffffffffffffffffffffffff1681525090565b5f5ffd5b5f5ffd5b5f819050919050565b6119e3816119d1565b81146119ed575f5ffd5b50565b5f813590506119fe816119da565b92915050565b5f73ffffffffffffffffffffffffffffffffffffffff82169050919050565b5f611a2d82611a04565b9050919050565b611a3d81611a23565b8114611a47575f5ffd5b50565b5f81359050611a5881611a34565b92915050565b5f5f60408385031215611a7457611a736119c9565b5b5f611a81858286016119f0565b9250506020611a9285828601611a4a565b9150509250929050565b5f8115159050919050565b611ab081611a9c565b8114611aba575f5ffd5b50565b5f81359050611acb81611aa7565b92915050565b5f5f60408385031215611ae757611ae66119c9565b5b5f611af485828601611a4a565b9250506020611b0585828601611abd565b9150509250929050565b60038110611b1b575f5ffd5b50565b5f81359050611b2c81611b0f565b92915050565b5f5f5f5f60808587031215611b4a57611b496119c9565b5b5f611b57878288016119f0565b9450506020611b68878288016119f0565b9350506040611b79878288016119f0565b9250506060611b8a87828801611b1e565b91505092959194509250565b611b9f816119d1565b82525050565b5f602082019050611bb85f830184611b96565b92915050565b611bc781611a23565b82525050565b5f602082019050611be05f830184611bbe565b92915050565b5f60208284031215611bfb57611bfa6119c9565b5b5f611c0884828501611a4a565b91505092915050565b611c1a81611a9c565b82525050565b5f602082019050611c335f830184611c11565b92915050565b5f5ffd5b5f5ffd5b5f5ffd5b5f5f83601f840112611c5a57611c59611c39565b5b8235905067ffffffffffffffff811115611c7757611c76611c3d565b5b602083019150836001820283011115611c9357611c92611c41565b5b9250929050565b5f5f5f5f60608587031215611cb257611cb16119c9565b5b5f85013567ffffffffffffffff811115611ccf57611cce6119cd565b5b611cdb87828801611c45565b94509450506020611cee878288016119f0565b9250506040611cff87828801611a4a565b91505092959194509250565b5f60208284031215611d2057611d1f6119c9565b5b5f611d2d848285016119f0565b91505092915050565b5f81519050919050565b5f82825260208201905092915050565b5f819050602082019050919050565b611d68816119d1565b82525050565b7f4e487b71000000000000000000000000000000000000000000000000000000005f52602160045260245ffd5b60038110611dac57611dab611d6e565b5b50565b5f819050611dbc82611d9b565b919050565b5f611dcb82611daf565b9050919050565b611ddb81611dc1565b82525050565b611dea81611a23565b82525050565b60c082015f820151611e045f850182611d5f565b506020820151611e176020850182611d5f565b506040820151611e2a6040850182611d5f565b506060820151611e3d6060850182611dd2565b506080820151611e506080850182611d5f565b5060a0820151611e6360a0850182611de1565b50505050565b5f611e748383611df0565b60c08301905092915050565b5f602082019050919050565b5f611e9682611d36565b611ea08185611d40565b9350611eab83611d50565b805f5b83811015611edb578151611ec28882611e69565b9750611ecd83611e80565b925050600181019050611eae565b5085935050505092915050565b5f6020820190508181035f830152611f008184611e8c565b905092915050565b5f81519050919050565b5f82825260208201905092915050565b8281835e5f83830152505050565b5f601f19601f8301169050919050565b5f611f4a82611f08565b611f548185611f12565b9350611f64818560208601611f22565b611f6d81611f30565b840191505092915050565b60038110611f8957611f88611d6e565b5b50565b5f819050611f9982611f78565b919050565b5f611fa882611f8c565b9050919050565b611fb881611f9e565b82525050565b611fc781611dc1565b82525050565b5f61012082019050611fe15f83018c611b96565b8181036020830152611ff3818b611f40565b9050612002604083018a611b96565b61200f6060830189611b96565b61201c6080830188611faf565b61202960a0830187611fbe565b61203660c0830186611b96565b61204360e0830185611b96565b612051610100830184611bbe565b9a9950505050505050505050565b5f5f60408385031215612075576120746119c9565b5b5f612082858286016119f0565b9250506020612093858286016119f0565b9150509250929050565b5f60c0820190506120b05f830189611b96565b6120bd6020830188611b96565b6120ca6040830187611b96565b6120d76060830186611fbe565b6120e46080830185611b96565b6120f160a0830184611bbe565b979650505050505050565b61210581611a9c565b82525050565b608082015f82015161211f5f850182611d5f565b5060208201516121326020850182611d5f565b5060408201516121456040850182611d5f565b50606082015161215860608501826120fc565b50505050565b5f6080820190506121715f83018461210b565b92915050565b5f5f6040838503121561218d5761218c6119c9565b5b5f61219a858286016119f0565b92505060206121ab85828601611b1e565b9150509250929050565b5f6080820190506121c85f830187611b96565b6121d56020830186611b96565b6121e26040830185611b96565b6121ef6060830184611c11565b95945050505050565b5f82825260208201905092915050565b5f61221282611f08565b61221c81856121f8565b935061222c818560208601611f22565b61223581611f30565b840191505092915050565b61224981611f9e565b82525050565b5f61012083015f8301516122655f860182611d5f565b506020830151848203602086015261227d8282612208565b91505060408301516122926040860182611d5f565b5060608301516122a56060860182611d5f565b5060808301516122b86080860182612240565b5060a08301516122cb60a0860182611dd2565b5060c08301516122de60c0860182611d5f565b5060e08301516122f160e0860182611d5f565b50610100830151612306610100860182611de1565b508091505092915050565b5f6020820190508181035f830152612329818461224f565b905092915050565b7f4d61726b6574206e6f74207265736f6c766564000000000000000000000000005f82015250565b5f612365601383611f12565b915061237082612331565b602082019050919050565b5f6020820190508181035f83015261239281612359565b9050919050565b7f416c726561647920736574746c656400000000000000000000000000000000005f82015250565b5f6123cd600f83611f12565b91506123d882612399565b602082019050919050565b5f6020820190508181035f8301526123fa816123c1565b9050919050565b7f4e487b71000000000000000000000000000000000000000000000000000000005f52601160045260245ffd5b5f612438826119d1565b9150612443836119d1565b925082820190508082111561245b5761245a612401565b5b92915050565b5f61246b826119d1565b9150612476836119d1565b9250828202612484816119d1565b9150828204841483151761249b5761249a612401565b5b5092915050565b7f4e487b71000000000000000000000000000000000000000000000000000000005f52601260045260245ffd5b5f6124d9826119d1565b91506124e4836119d1565b9250826124f4576124f36124a2565b5b828204905092915050565b5f819050919050565b5f612512826124ff565b915061251d836124ff565b925082820261252b816124ff565b91507f800000000000000000000000000000000000000000000000000000000000000084145f8412161561256257612561612401565b5b828205841483151761257757612576612401565b5b5092915050565b5f612588826124ff565b9150612593836124ff565b9250826125a3576125a26124a2565b5b60015f0383147f8000000000000000000000000000000000000000000000000000000000000000831416156125db576125da612401565b5b828205905092915050565b5f6125f0826124ff565b91506125fb836124ff565b925082820390508181125f8412168282135f8512151617156126205761261f612401565b5b92915050565b5f612630826119d1565b915061263b836119d1565b925082820390508181111561265357612652612401565b5b92915050565b7f4e487b71000000000000000000000000000000000000000000000000000000005f52603260045260245ffd5b5f612690826119d1565b91505f82036126a2576126a1612401565b5b600182039050919050565b6126b6816124ff565b82525050565b5f6060820190506126cf5f830186611b96565b6126dc6020830185611b96565b6126e960408301846126ad565b949350505050565b7f556e617574686f72697a656400000000000000000000000000000000000000005f82015250565b5f612725600c83611f12565b9150612730826126f1565b602082019050919050565b5f6020820190508181035f83015261275281612719565b9050919050565b5f60808201905061276c5f830187611fbe565b6127796020830186611b96565b6127866040830185611b96565b6127936060830184611b96565b95945050505050565b7f456d707479207175657374696f6e0000000000000000000000000000000000005f82015250565b5f6127d0600e83611f12565b91506127db8261279c565b602082019050919050565b5f6020820190508181035f8301526127fd816127c4565b9050919050565b7f496e76616c6964207265736f6c7574696f6e2074696d650000000000000000005f82015250565b5f612838601783611f12565b915061284382612804565b602082019050919050565b5f6020820190508181035f8301526128658161282c565b9050919050565b7f496e76616c6964207265736f6c766572000000000000000000000000000000005f82015250565b5f6128a0601083611f12565b91506128ab8261286c565b602082019050919050565b5f6020820190508181035f8301526128cd81612894565b9050919050565b7f4e487b71000000000000000000000000000000000000000000000000000000005f52604160045260245ffd5b7f4e487b71000000000000000000000000000000000000000000000000000000005f52602260045260245ffd5b5f600282049050600182168061294557607f821691505b60208210810361295857612957612901565b5b50919050565b5f819050815f5260205f209050919050565b5f6020601f8301049050919050565b5f82821b905092915050565b5f600883026129ba7fffffffffffffffffffffffffffffffffffffffffffffffffffffffffffffffff8261297f565b6129c4868361297f565b95508019841693508086168417925050509392505050565b5f819050919050565b5f6129ff6129fa6129f5846119d1565b6129dc565b6119d1565b9050919050565b5f819050919050565b612a18836129e5565b612a2c612a2482612a06565b84845461298b565b825550505050565b5f5f905090565b612a43612a34565b612a4e818484612a0f565b505050565b5b81811015612a7157612a665f82612a3b565b600181019050612a54565b5050565b601f821115612ab657612a878161295e565b612a9084612970565b81016020851015612a9f578190505b612ab3612aab85612970565b830182612a53565b50505b505050565b5f82821c905092915050565b5f612ad65f1984600802612abb565b1980831691505092915050565b5f612aee8383612ac7565b9150826002028217905092915050565b612b0782611f08565b67ffffffffffffffff811115612b2057612b1f6128d4565b5b612b2a825461292e565b612b35828285612a75565b5f60209050601f831160018114612b66575f8415612b54578287015190505b612b5e8582612ae3565b865550612bc5565b601f198416612b748661295e565b5f5b82811015612b9b57848901518255600182019150602085019450602081019050612b76565b86831015612bb85784890151612bb4601f891682612ac7565b8355505b6001600288020188555050505b505050505050565b5f612bd7826119d1565b91507fffffffffffffffffffffffffffffffffffffffffffffffffffffffffffffffff8203612c0957612c08612401565b5b600182019050919050565b828183375f83830152505050565b5f612c2d8385611f12565b9350612c3a838584612c14565b612c4383611f30565b840190509392505050565b5f6040820190508181035f830152612c67818587612c22565b9050612c766020830184611b96565b949350505050565b7f4e6f7420796574207265736f6c7661626c6500000000000000000000000000005f82015250565b5f612cb2601283611f12565b9150612cbd82612c7e565b602082019050919050565b5f6020820190508181035f830152612cdf81612ca6565b9050919050565b5f604082019050612cf95f830185611fbe565b612d066020830184611b96565b939250505056fea264697066735822122055c276ff8025b3e1fe72e700d4802c3494f7d5fc28d03ae5fe315b204716a70064736f6c634300081e0033","linkReferences":{}},"methodIdentifiers":{"authorizedSmartAccounts(address)":"30ceb74f","createMarket(string,uint256,address)":"576cf9d0","getMarket(uint256)":"eb44fdd3","getPosition(uint256,address)":"d29f541d","getTradeHistory(uint256)":"873c5e60","isMarketOpen(uint256)":"9f33da3f","marketCreator()":"27cbaabe","markets(uint256)":"b1283e77","nextMarketId()":"406ef2ef","positions(uint256,address)":"e684d718","resolveMarket(uint256,uint8)":"df55406e","setSmartAccountAuthorization(address,bool)":"14b11bcc","settlePosition(uint256,address)":"10a7bf48","trade(uint256,uint256,uint256,uint8)":"1d6c482f","tradeHistory(uint256,uint256)":"c0973e4d"},"id":19}