{"abi":[{"type":"constructor","inputs":[{"name":"_delegationPolicy","type":"address","internalType":"address"},{"name":"_agentRegistry","type":"address","internalType":"address"},{"name":"_ownerAddress","type":"address","internalType":"address"}],"stateMutability":"nonpayable"},{"type":"receive","stateMutability":"payable"},{"type":"function","name":"_owner","inputs":[],"outputs":[{"name":"","type":"address","internalType":"address"}],"stateMutability":"view"},{"type":"function","name":"agentRegistry","inputs":[],"outputs":[{"name":"","type":"address","internalType":"contract IAgentRegistry"}],"stateMutability":"view"},{"type":"function","name":"authorizeAgent","inputs":[{"name":"_agent","type":"address","internalType":"address"},{"name":"_maxTradeSize","type":"uint256","internalType":"uint256"},{"name":"_allowedMarkets","type":"address[]","internalType":"address[]"},{"name":"_expiryTime","type":"uint256","internalType":"uint256"}],"outputs":[],"stateMutability":"nonpayable"},{"type":"function","name":"delegationPolicy","inputs":[],"outputs":[{"name":"","type":"address","internalType":"contract DelegationPolicy"}],"stateMutability":"view"},{"type":"function","name":"executeTrade","inputs":[{"name":"_agentId","type":"uint256","internalType":"uint256"},{"name":"_market","type":"address","internalType":"address"},{"name":"_tradeSize","type":"uint256","internalType":"uint256"},{"name":"_tradeData","type":"bytes","internalType":"bytes"}],"outputs":[],"stateMutability":"nonpayable"},{"type":"function","name":"owner","inputs":[],"outputs":[{"name":"","type":"address","internalType":"address"}],"stateMutability":"view"},{"type":"function","name":"revokeAgent","inputs":[{"name":"_agent","type":"address","internalType":"address"}],"outputs":[],"stateMutability":"nonpayable"},{"type":"event","name":"TradeProposed","inputs":[{"name":"agent","type":"address","indexed":true,"internalType":"address"},{"name":"market","type":"address","indexed":true,"internalType":"address"},{"name":"tradeSize","type":"uint256","indexed":false,"internalType":"uint256"},{"name":"executed","type":"bool","indexed":false,"internalType":"bool"}],"anonymous":false}],"bytecode":{"object":"0x608060405234801561000f575f5ffd5b506040516111a23803806111a283398181016040528101906100319190610156565b825f5f6101000a81548173ffffffffffffffffffffffffffffffffffffffff021916908373ffffffffffffffffffffffffffffffffffffffff1602179055508160015f6101000a81548173ffffffffffffffffffffffffffffffffffffffff021916908373ffffffffffffffffffffffffffffffffffffffff1602179055508060025f6101000a81548173ffffffffffffffffffffffffffffffffffffffff021916908373ffffffffffffffffffffffffffffffffffffffff1602179055505050506101a6565b5f5ffd5b5f73ffffffffffffffffffffffffffffffffffffffff82169050919050565b5f610125826100fc565b9050919050565b6101358161011b565b811461013f575f5ffd5b50565b5f815190506101508161012c565b92915050565b5f5f5f6060848603121561016d5761016c6100f8565b5b5f61017a86828701610142565b935050602061018b86828701610142565b925050604061019c86828701610142565b9150509250925092565b610fef806101b35f395ff3fe608060405260043610610073575f3560e01c80637f6df60f1161004d5780637f6df60f146100fa5780638da5cb5b14610122578063b2bdfa7b1461014c578063d0343e3d146101765761007a565b80630d1cfcae1461007e578063799e2590146100a85780637da6ac0d146100d25761007a565b3661007a57005b5f5ffd5b348015610089575f5ffd5b5061009261019e565b60405161009f9190610782565b60405180910390f35b3480156100b3575f5ffd5b506100bc6101c3565b6040516100c991906107bb565b60405180910390f35b3480156100dd575f5ffd5b506100f860048036038101906100f39190610820565b6101e7565b005b348015610105575f5ffd5b50610120600480360381019061011b91906108df565b6102e5565b005b34801561012d575f5ffd5b5061013661059d565b6040516101439190610972565b60405180910390f35b348015610157575f5ffd5b506101606105c5565b60405161016d9190610972565b60405180910390f35b348015610181575f5ffd5b5061019c600480360381019061019791906109e0565b6105ea565b005b60015f9054906101000a900473ffffffffffffffffffffffffffffffffffffffff1681565b5f5f9054906101000a900473ffffffffffffffffffffffffffffffffffffffff1681565b6101ef61059d565b73ffffffffffffffffffffffffffffffffffffffff163373ffffffffffffffffffffffffffffffffffffffff161461025c576040517f08c379a000000000000000000000000000000000000000000000000000000000815260040161025390610abe565b60405180910390fd5b5f5f9054906101000a900473ffffffffffffffffffffffffffffffffffffffff1673ffffffffffffffffffffffffffffffffffffffff16637da6ac0d826040518263ffffffff1660e01b81526004016102b59190610972565b5f604051808303815f87803b1580156102cc575f5ffd5b505af11580156102de573d5f5f3e3d5ffd5b5050505050565b5f60015f9054906101000a900473ffffffffffffffffffffffffffffffffffffffff1673ffffffffffffffffffffffffffffffffffffffff16632de5aaf7876040518263ffffffff1660e01b81526004016103409190610aeb565b60a060405180830381865afa15801561035b573d5f5f3e3d5ffd5b505050506040513d601f19601f8201168201806040525081019061037f9190610ccc565b90503373ffffffffffffffffffffffffffffffffffffffff16815f015173ffffffffffffffffffffffffffffffffffffffff16146103f2576040517f08c379a00000000000000000000000000000000000000000000000000000000081526004016103e990610d41565b60405180910390fd5b5f5f9054906101000a900473ffffffffffffffffffffffffffffffffffffffff1673ffffffffffffffffffffffffffffffffffffffff1663c5416172825f015187876040518463ffffffff1660e01b815260040161045293929190610d5f565b5f604051808303815f87803b158015610469575f5ffd5b505af115801561047b573d5f5f3e3d5ffd5b505050505f8573ffffffffffffffffffffffffffffffffffffffff1684846040516104a7929190610dd0565b5f604051808303815f865af19150503d805f81146104e0576040519150601f19603f3d011682016040523d82523d5f602084013e6104e5565b606091505b5050905080610529576040517f08c379a000000000000000000000000000000000000000000000000000000000815260040161052090610e32565b60405180910390fd5b8573ffffffffffffffffffffffffffffffffffffffff16825f015173ffffffffffffffffffffffffffffffffffffffff167f31fac701622f0e1b0f3cc984ad9b6de46fca8210142bebdf0cf8d53038c0d23a87600160405161058c929190610e5f565b60405180910390a350505050505050565b5f60025f9054906101000a900473ffffffffffffffffffffffffffffffffffffffff16905090565b60025f9054906101000a900473ffffffffffffffffffffffffffffffffffffffff1681565b6105f261059d565b73ffffffffffffffffffffffffffffffffffffffff163373ffffffffffffffffffffffffffffffffffffffff161461065f576040517f08c379a000000000000000000000000000000000000000000000000000000000815260040161065690610abe565b60405180910390fd5b5f5f9054906101000a900473ffffffffffffffffffffffffffffffffffffffff1673ffffffffffffffffffffffffffffffffffffffff16635c872c2f86868686866040518663ffffffff1660e01b81526004016106c0959493929190610f42565b6020604051808303815f875af11580156106dc573d5f5f3e3d5ffd5b505050506040513d601f19601f820116820180604052508101906107009190610f8e565b505050505050565b5f73ffffffffffffffffffffffffffffffffffffffff82169050919050565b5f819050919050565b5f61074a61074561074084610708565b610727565b610708565b9050919050565b5f61075b82610730565b9050919050565b5f61076c82610751565b9050919050565b61077c81610762565b82525050565b5f6020820190506107955f830184610773565b92915050565b5f6107a582610751565b9050919050565b6107b58161079b565b82525050565b5f6020820190506107ce5f8301846107ac565b92915050565b5f604051905090565b5f5ffd5b5f5ffd5b5f6107ef82610708565b9050919050565b6107ff816107e5565b8114610809575f5ffd5b50565b5f8135905061081a816107f6565b92915050565b5f60208284031215610835576108346107dd565b5b5f6108428482850161080c565b91505092915050565b5f819050919050565b61085d8161084b565b8114610867575f5ffd5b50565b5f8135905061087881610854565b92915050565b5f5ffd5b5f5ffd5b5f5ffd5b5f5f83601f84011261089f5761089e61087e565b5b8235905067ffffffffffffffff8111156108bc576108bb610882565b5b6020830191508360018202830111156108d8576108d7610886565b5b9250929050565b5f5f5f5f5f608086880312156108f8576108f76107dd565b5b5f6109058882890161086a565b95505060206109168882890161080c565b94505060406109278882890161086a565b935050606086013567ffffffffffffffff811115610948576109476107e1565b5b6109548882890161088a565b92509250509295509295909350565b61096c816107e5565b82525050565b5f6020820190506109855f830184610963565b92915050565b5f5f83601f8401126109a05761099f61087e565b5b8235905067ffffffffffffffff8111156109bd576109bc610882565b5b6020830191508360208202830111156109d9576109d8610886565b5b9250929050565b5f5f5f5f5f608086880312156109f9576109f86107dd565b5b5f610a068882890161080c565b9550506020610a178882890161086a565b945050604086013567ffffffffffffffff811115610a3857610a376107e1565b5b610a448882890161098b565b93509350506060610a578882890161086a565b9150509295509295909350565b5f82825260208201905092915050565b7f556e617574686f72697a656400000000000000000000000000000000000000005f82015250565b5f610aa8600c83610a64565b9150610ab382610a74565b602082019050919050565b5f6020820190508181035f830152610ad581610a9c565b9050919050565b610ae58161084b565b82525050565b5f602082019050610afe5f830184610adc565b92915050565b5f5ffd5b5f601f19601f8301169050919050565b7f4e487b71000000000000000000000000000000000000000000000000000000005f52604160045260245ffd5b610b4e82610b08565b810181811067ffffffffffffffff82111715610b6d57610b6c610b18565b5b80604052505050565b5f610b7f6107d4565b9050610b8b8282610b45565b919050565b5f81519050610b9e816107f6565b92915050565b5f819050919050565b610bb681610ba4565b8114610bc0575f5ffd5b50565b5f81519050610bd181610bad565b92915050565b60038110610be3575f5ffd5b50565b5f81519050610bf481610bd7565b92915050565b5f81519050610c0881610854565b92915050565b5f8115159050919050565b610c2281610c0e565b8114610c2c575f5ffd5b50565b5f81519050610c3d81610c19565b92915050565b5f60a08284031215610c5857610c57610b04565b5b610c6260a0610b76565b90505f610c7184828501610b90565b5f830152506020610c8484828501610bc3565b6020830152506040610c9884828501610be6565b6040830152506060610cac84828501610bfa565b6060830152506080610cc084828501610c2f565b60808301525092915050565b5f60a08284031215610ce157610ce06107dd565b5b5f610cee84828501610c43565b91505092915050565b7f4e6f74206167656e74206f70657261746f7200000000000000000000000000005f82015250565b5f610d2b601283610a64565b9150610d3682610cf7565b602082019050919050565b5f6020820190508181035f830152610d5881610d1f565b9050919050565b5f606082019050610d725f830186610963565b610d7f6020830185610963565b610d8c6040830184610adc565b949350505050565b5f81905092915050565b828183375f83830152505050565b5f610db78385610d94565b9350610dc4838584610d9e565b82840190509392505050565b5f610ddc828486610dac565b91508190509392505050565b7f547261646520657865637574696f6e206661696c6564000000000000000000005f82015250565b5f610e1c601683610a64565b9150610e2782610de8565b602082019050919050565b5f6020820190508181035f830152610e4981610e10565b9050919050565b610e5981610c0e565b82525050565b5f604082019050610e725f830185610adc565b610e7f6020830184610e50565b9392505050565b5f82825260208201905092915050565b5f819050919050565b610ea8816107e5565b82525050565b5f610eb98383610e9f565b60208301905092915050565b5f610ed3602084018461080c565b905092915050565b5f602082019050919050565b5f610ef28385610e86565b9350610efd82610e96565b805f5b85811015610f3557610f128284610ec5565b610f1c8882610eae565b9750610f2783610edb565b925050600181019050610f00565b5085925050509392505050565b5f608082019050610f555f830188610963565b610f626020830187610adc565b8181036040830152610f75818587610ee7565b9050610f846060830184610adc565b9695505050505050565b5f60208284031215610fa357610fa26107dd565b5b5f610fb084828501610bfa565b9150509291505056fea2646970667358221220826e0a07a2da1acdc5850793ae2a055f86764f0fe7767618b980c2f3c40e34f964736f6c634300081e0033","linkReferences":{}},"methodIdentifiers":{"_owner()":"b2bdfa7b","agentRegistry()":"0d1cfcae","authorizeAgent(address,uint256,address[],uint256)":"d0343e3d","delegationPolicy()":"799e2590","executeTrade(uint256,address,uint256,bytes)":"7f6df60f","owner()":"8da5cb5b","revokeAgent(address)":"7da6ac0d"},"id":20}